{
  "contractName": "TodoList",
  "abi": [
    {
      "constant": true,
      "inputs": [],
      "name": "taskCount",
      "outputs": [
        {
          "internalType": "uint256",
          "name": "",
          "type": "uint256"
        }
      ],
      "payable": false,
      "stateMutability": "view",
      "type": "function"
    }
  ],
  "bytecode": "0x608060405260008055348015601357600080fd5b506080806100226000396000f3fe6080604052348015600f57600080fd5b506004361060285760003560e01c8063b6cb58a514602d575b600080fd5b60336045565b60408051918252519081900360200190f35b6000548156fea265627a7a72315820362b57e4cefc8ac1237cf4e2ee18f49ffab3a2ee467437ce544d417c72e6feed64736f6c63430005100032",
  "source": "pragma solidity >=0.5.0;\r\n\r\ncontract TodoList{\r\n    uint public taskCount = 0; //Written to blockchain, represnt state of contract in blockchain\r\n\r\n\r\n}",
  "sourcePath": "C:\\Users\\Atharva\\Desktop\\VSCODE FOLDER\\smart_contract\\contracts\\TodoList.sol",
  "compiler": {
    "name": "solc",
    "version": "0.5.16+commit.9c3226ce.Emscripten.clang"
  },
  "schemaVersion": "3.4.4",
  "updatedAt": "2022-01-17T11:56:52.838Z",
  "networkType": "ethereum",
  "devdoc": {
    "methods": {}
  },
  "userdoc": {
    "methods": {}
  }
}